:1000000002C01BC07BC011241FBECFEDCDBF10E0CE
:10001000A0E6B0E0E6E8F5E003C0C89531960D92A1
:10002000A836B107D1F720E0A8E6B0E001C01D92E4
:10003000A339B207E1F7B3D0A4C2E2CF8031CCF04C
:1000400080516830D4F06850E82F880FFF0BE059DA
:10005000FF4F808121E030E002C0220F331F6A95FC
:10006000E2F790E02823392381E0232B09F480E094
:10007000089587FFE6CF805FE4CF67FFE5CF685F35
:10008000E3CF803191F0683081F0E82F880FFF0BCB
:1000900081E090E001C0880F6A95EAF7E058FF4FD1
:1000A0009081442319F0892B8083089580958923BA
:1000B000FBCF0F931F93CF938091600090916100CD
:1000C000392F282F2F5F3F4F30936100209360001E
:1000D000EFD104E010E0E8D1C82FE6D18C2B8C776B
:1000E000F12FE02FE058FF4F80830F5F1F4F0C3040
:1000F000110589F7CF911F910F9108951F920F92CB
:100100000FB60F9211242F933F934F938F939F938A
:10011000EF93FF9384E682BFC09A2FE030E0F32F85
:10012000E22FE059FF4F808190E04091620002C0D1
:10013000959587954A95E2F780FF2BC0C19AC29AA0
:10014000C2982150310958F787E0909162009813C6
:1001500022C0C19AC29AC2988150B8F7C098C09A7A
:10016000C09880916200815087FD17C08093620023
:1001700080919200816080939200FF91EF919F9116
:100180008F914F913F912F910F900FBE0F901F9025
:100190001895C198D4CFC198DDCF87E0E7CF88E12B
:1001A0009DE00FB6F894A89581BD0FBE91BDB99A98
:1001B000BA9AB89A83B7836083BF89B7826089BFD0
:1001C000789477DF0AEF10E080E1B82EA89580914F
:1001D00092008823E1F38091920080FFF7CF809115
:1001E00092008E7F80939200809190009091910078
:1001F000009709F0FCC0109391000093900070E00C
:1002000060E030E020E0F1E0D32FC22FC058DF4F94
:10021000A88150E040E0E0E0B0E0FB2EEA2E042EA2
:1002200002C0F594E7940A94E2F7E0FCEF5F4F5FB9
:100230005F4F4830510589F78E0F911D532F422F84
:1002400040595F4FF52EE42EB52FA42FDC9050E0DF
:1002500040E0E0E0AD2DB0E0DB2ECA2E042E02C05F
:10026000D594C7940A94E2F7C0FCEF5F4F5F5F4FED
:100270004830510589F76E0F711D5881BF2DAE2D85
:100280004C915413F0E02F5F3F4F2031310509F0BE
:10029000BBCF009709F075C080916E0090916F0000
:1002A000019690936F0080936E008091680090910A
:1002B00069000196909369008093680020916C001A
:1002C00030916D002930310550F420916A00309151
:1002D0006B002932310518F4813F910560F0E0E8A8
:1002E000F0E0BF2FAE2F4B2D1D924A95E9F71092EB
:1002F00069001092680080916E0090916F000497E1
:1003000008F0D7DE80E1E0E8F0E0A0E7B0E001909F
:100310000D928A95E1F7DD24DA94FF24F394EE241C
:10032000EA94EF0CD0E0A8956D2DCC24CA94CD0EA4
:100330008C2D84DEC82F6D2D8D2F80DEC80FAA2452
:10034000A394AD0E6D2D8A2D79DEC80F6E2D8C2DE8
:1003500075DEC80F6E2D8A2D71DEC80F6F2D8C2DA6
:100360006DDEC80F6F2D8D2F69DEC80F6F2D8A2DA2
:1003700065DE8C0F823059F141E0833061F140E05D
:100380002AC0FF2351F080916C0090916D0001967E
:1003900090936D0080936C0088CF8617970751F477
:1003A00080916A0090916B00019690936B0080930E
:1003B0006A007BCF10926F0010926E0010926B005B
:1003C00010926A0010926D0010926C006ECF6E2D2C
:1003D0008D2F34DE482F6E2D8D2F53DEDA2DD03148
:1003E00009F0A1CFF394D39459E0F51298CF8091FE
:1003F00090009091910001979093910080939000CC
:10040000E5CE8F929F92AF92BF92CF92DF92EF9202
:10041000FF92CF93DF93D92FC82F688179818A818A
:100420009B81611571058105910521F464E279EDE7
:100430008BE597E02DE133EF41E050E05FD0932E64
:10044000822EB52EA42E27EA31E440E050E03BD0C6
:10045000D72EC62EF92EE82E2CEE34EF4FEF5FEF9D
:100460009B2D8A2D792D682D2ED0B92FA82F972F4F
:10047000862F8C0D9D1DAE1DBF1DB7FF03C00197BC
:10048000A109B04888839983AA83BB839F77DF91B2
:10049000CF91FF90EF90DF90CF90BF90AF909F9063
:1004A0008F900895AEDF089583E690E0AADF089567
:1004B000B0E0A0E08093630090936400A093650097
:1004C000B09366000895EE27FF27AA27BB2708C030
:1004D000A20FB31FE41FF51F220F331F441F551F28
:1004E000969587957795679598F37040A9F700974B
:1004F00099F76A2F7B2F8E2F9F2F0895052E97FB3C
:1005000016F400940FD057FD05D014D007FC02D08C
:1005100046F408C050954095309521953F4F4F4F78
:100520005F4F089590958095709561957F4F8F4F9F
:100530009F4F0895A1E21A2EAA1BBB1BEA2FFB2F87
:100540000DC0AA1FBB1FEE1FFF1FA217B307E407B2
:10055000F50720F0A21BB30BE40BF50B661F771F0A
:10056000881F991F1A9469F76095709580959095EA
:10057000262F372F482F592F6A2F7B2F8E2F9F2FF3
:060580000895F894FFCF7E
:080586002A000701000000003B
:00000001FF
