:100000000EC028C027C026C025C0B7C123C022C04B
:1000100021C020C01FC01EC01DC01CC01BC0112499
:100020001FBECFE5D2E0DEBFCDBF10E0A0E6B0E05E
:10003000EAEBF5E002C005900D92A836B107D9F7BA
:1000400020E0A8E6B0E001C01D92A339B207E1F7B5
:10005000FFD1B1C2D5CF8031A8F4683098F4E82F31
:10006000880FFF0B81E090E001C0880F6A95EAF7E6
:10007000ED58FF4F9081442311F0892B02C08095E9
:10008000892380830895803114F0805102C087FD58
:10009000805F683014F0685002C067FD685FE82F29
:1000A000880FFF0BED57FF4F808121E030E002C049
:1000B000220F331F6A95E2F790E02823392381E06D
:1000C000232B09F480E00895EF92FF920F931F9382
:1000D000CF93DF93182FD62FEE24EA94E60EFF2459
:1000E000FA94F80E6E2D8F2DCEDFC82F6E2D812F36
:1000F000CADFC80F01E0010F6E2D802FC4DFC80FCB
:100100006D2F8F2DC0DFC80F6D2F802FBCDFC80F64
:10011000DF5F6D2F8F2DB7DFC80F6D2F812FB3DFFE
:10012000C80F6D2F802FAFDF8C0FDF91CF911F9104
:100130000F91FF90EF9008950F931F93CF938091AD
:100140006000909161009C012F5F3F4F30936100F0
:1001500020936000CED104E010E0C7D1C82FC5D1F4
:100160008C2B8C77F801ED58FF4F80830F5F1F4F6A
:100170000C30110591F7CF911F910F91089530E048
:1001800020E090E0482F50E0BA01022E02C07595A1
:1001900067950A94E2F760FD9F5F2F5F3F4F28301D
:1001A000310591F7892F08958F929F92AF92BF9258
:1001B000DF92EF92FF920F931F93CF93DF93D0E0E4
:1001C000C0E0DD24D394F12CE12C10E000E0CE015E
:1001D0008D589F4F4C01DC018C91D1DF080F111D10
:1001E000FE01ED57FF4F5F018081C9DFE80EF11C72
:1001F000D4019C91F50180819813D12C2196C031B6
:10020000D10529F70115110551F4809170009091E5
:1002100071000196909371008093700025C0DD20DD
:1002200051F080916E0090916F00019690936F0055
:1002300080936E0019C00E151F0551F480916C005B
:1002400090916D00019690936D0080936C000CC0AE
:10025000109271001092700010926D0010926C005C
:1002600010926F0010926E0080916A0090916B0066
:10027000019690936B0080936A0020916E003091FC
:100280006F002930310550F420916C0030916D00E1
:100290002932310518F4813F910558F0E3E7F0E089
:1002A00080E1DF011D928A95E9F710926B001092B0
:1002B0006A008091700090917100049708F03CDF13
:1002C00080E1E3E7F0E0A3E8B0E001900D928A95C9
:1002D000E1F7D0E019C0A8956D2F8C2FF5DE8230A4
:1002E00021F041E0833039F005C06D2F8C2FCBDE3B
:1002F000482F01C040E06D2F8C2FADDECF5FC031A5
:1003000051F7DF5FD83011F0C0E0E5CFDF91CF913A
:100310001F910F91FF90EF90DF90BF90AF909F9053
:100320008F90089509CF8091680090916900892B82
:1003300039F48AEF90E0909369008093680034DF8D
:100340008091680090916900019790936900809373
:100350006800089588E19DE00FB6F894A89581BDE6
:100360000FBE91BDB99ABA9AB89A83B7836083BF1A
:1003700089B7826089BF7894D5CF1F920F920FB64C
:100380000F9211242F933F934F935F936F937F931B
:100390008F939F93AF93BF93EF93FF9383E882BFB5
:1003A00026D080917200816080937200FF91EF915E
:1003B000BF91AF919F918F917F916F915F914F917D
:1003C0003F912F910F900FBE0F901F901895A895F9
:1003D000809172008823E1F38091720080FF06C053
:1003E000809172008E7F809372009DCF0895C09A95
:1003F0002FE030E0F901ED57FF4F808190E0409110
:10040000620002C0959587954A95E2F780FF02C089
:10041000C19A01C0C198C29AC2982150310950F7BF
:1004200087E090916200981302C0C19A01C0C19800
:10043000C29AC2988150A8F7C098C09AC09880917B
:100440006200815087FF01C087E0809362000895B9
:1004500081DFBDDFFECF8F929F92AF92BF92CF928E
:10046000DF92EF92FF92CF93DF93EC016881798165
:100470008A819B81611571058105910521F464E2F2
:1004800079ED8BE597E02DE133EF41E050E055D079
:1004900049015A0127EA31E440E050E035D06B01D0
:1004A0007C012CEE34EF4FEF5FEFC501B4012CD08F
:1004B000DC01CB018C0D9D1DAE1DBF1DB7FF03C020
:1004C0000197A109B04888839983AA83BB839F774A
:1004D000DF91CF91FF90EF90DF90CF90BF90AF90E2
:1004E0009F908F900895B7DF089583E690E0B3DF83
:1004F0000895B0E0A0E08093630090936400A0931F
:100500006500B09366000895EE27FF27AA27BB2752
:1005100008C0A20FB31FE41FF51F220F331F441F93
:10052000551F969587957795679598F37040A9F72D
:10053000009799F7BD01CF010895052E97FB16F49A
:1005400000940FD057FD05D014D007FC02D046F41C
:1005500008C050954095309521953F4F4F4F5F4FC4
:10056000089590958095709561957F4F8F4F9F4F1F
:100570000895A1E21A2EAA1BBB1BFD010DC0AA1FE4
:10058000BB1FEE1FFF1FA217B307E407F50720F0FC
:10059000A21BB30BE40BF50B661F771F881F991F77
:1005A0001A9469F760957095809590959B01AC01C0
:0A05B000BD01CF010895F894FFCFBC
:0805BA002A0007010000000007
:00000001FF
