:100000000EC026C025C024C023C081C021C020C08E
:100010001FC01EC01DC01CC01BC01AC019C01124A7
:100020001FBECFEDCDBF10E0A0E6B0E0E6E6F5E004
:1000300002C005900D92A836B107D9F720E0A8E6D6
:10004000B0E001C01D92A339B207E1F7B0D089C278
:10005000D7CF8031CCF080516830D4F06850E82F91
:10006000880FFF0BE059FF4F808121E030E002C094
:10007000220F331F6A95E2F790E02823392381E0AD
:10008000232B09F480E0089587FFE6CF805FE4CF5B
:1000900067FFE5CF685FE3CF803191F0683081F092
:1000A000E82F880FFF0B81E090E001C0880F6A9570
:1000B000EAF7E058FF4F9081442319F0892B8083A1
:1000C000089580958923FBCF0F931F93CF93809141
:1000D0006000909161009C012F5F3F4F3093610061
:1000E00020936000DCD104E010E0D5D1C82FD3D13B
:1000F0008C2B8C77F801E058FF4F80830F5F1F4FE8
:100100000C30110591F7CF911F910F9108951F9217
:100110000F920FB60F9211242F933F934F938F930B
:100120009F93EF93FF9383E882BFC09A2FE030E064
:10013000F901E059FF4F808190E04091620002C0D8
:10014000959587954A95E2F780FF2BC0C19AC29A90
:10015000C2982150310960F787E0909162009813AE
:1001600022C0C19AC29AC2988150B8F7C098C09A6A
:10017000C09880916200815087FD17C08093620013
:1001800080919200816080939200FF91EF919F9106
:100190008F914F913F912F910F900FBE0F901F9015
:1001A0001895C198D4CFC198DDCF87E0E7CF88E11B
:1001B0009DE00FB6F894A89581BD0FBE91BDB99A88
:1001C000BA9AB89A83B7836083BF89B7826089BFC0
:1001D00078947ADF0AEF10E080E1B82EA89580913C
:1001E00092008823E1F38091920080FFF7CF809105
:1001F00092008E7F80939200809190009091910068
:10020000009709F0F4C0109391000093900070E003
:1002100060E030E020E0F1E0E901C058DF4FA88164
:1002200050E040E0E0E0B0E07D01042E02C0F59433
:10023000E7940A94E2F7E0FCEF5F4F5F5F4F4830CE
:10024000510591F78E0F911DA90140595F4F7A0119
:10025000DA01DC9050E040E0E0E0AD2DB0E06D016F
:10026000042E02C0D594C7940A94E2F7C0FCEF5F55
:100270004F5F5F4F4830510591F76E0F711D5881E8
:10028000D7014C915413F0E02F5F3F4F20313105DF
:1002900009F0C2CF009709F074C080916E00909170
:1002A0006F00019690936F0080936E0080916800BC
:1002B0009091690001969093690080936800209165
:1002C0006C0030916D002930310550F420916A00A6
:1002D00030916B002932310518F4813F910558F0B7
:1002E000E0E8F0E0DF014B2D1D924A95E9F710920E
:1002F00069001092680080916E0090916F000497E1
:1003000008F0E2DE80E1E0E8F0E0A0E7B0E0019094
:100310000D928A95E1F7DD24DA94FF24F394EE241C
:10032000EA94EF0CD0E0A8956D2DCC24CA94CD0EA4
:100330008C2D8FDEC82F6D2D8D2F8BDEC80FAA243C
:10034000A394AD0E6D2D8A2D84DEC80F6E2D8C2DDD
:1003500080DEC80F6E2D8A2D7CDEC80F6F2D8C2D90
:1003600078DEC80F6F2D8D2F74DEC80F6F2D8A2D8C
:1003700070DE8C0F823059F141E0833061F140E052
:100380002AC0FF2351F080916C0090916D0001967E
:1003900090936D0080936C0089CF8617970751F476
:1003A00080916A0090916B00019690936B0080930E
:1003B0006A007CCF10926F0010926E0010926B005A
:1003C00010926A0010926D0010926C006FCF6E2D2B
:1003D0008D2F3FDE482F6E2D8D2F5EDEDA2DD03132
:1003E00009F0A1CFF394D39459E0F51298CF8091FE
:1003F00090009091910001979093910080939000CC
:10040000EDCE8F929F92AF92BF92CF92DF92EF92FA
:10041000FF92CF93DF93EC01688179818A819B8180
:10042000611571058105910521F464E279ED8BE593
:1004300097E02DE133EF41E050E055D049015A01FA
:1004400027EA31E440E050E035D06B017C012CEE2E
:1004500034EF4FEF5FEFC501B4012CD0DC01CB01CD
:100460008C0D9D1DAE1DBF1DB7FF03C00197A109D7
:10047000B04888839983AA83BB839F77DF91CF910C
:10048000FF90EF90DF90CF90BF90AF909F908F90B4
:100490000895B7DF089583E690E0B3DF0895B0E0F4
:1004A000A0E08093630090936400A0936500B093F4
:1004B00066000895EE27FF27AA27BB2708C0A20FD2
:1004C000B31FE41FF51F220F331F441F551F9695BE
:1004D00087957795679598F37040A9F7009799F7F6
:1004E000BD01CF010895052E97FB16F400940FD09F
:1004F00057FD05D014D007FC02D046F408C0509533
:100500004095309521953F4F4F4F5F4F08959095FF
:100510008095709561957F4F8F4F9F4F0895A1E211
:100520001A2EAA1BBB1BFD010DC0AA1FBB1FEE1F6D
:10053000FF1FA217B307E407F50720F0A21BB30BB8
:10054000E40BF50B661F771F881F991F1A9469F734
:1005500060957095809590959B01AC01BD01CF0190
:060560000895F894FFCF9E
:080566002A000701000000005B
:00000001FF
