:1000000003C003C0B0C001C006C0FACF211710F46E
:10001000121BFCCF089516D000C090980023F1F376
:10002000909A23D000FF01C00E7F01FF04C00D7F16
:10003000332009F03A9402FF01C00B7F03FF01C097
:10004000077FEBCF002722245524662413E013BF3B
:1000500012E018BF12E019BF17B31C6F17BB889AC4
:10006000899A929A939A78940895122C10E0111517
:1000700061F416B31370106918BB2DE2102DC6DFA2
:100080002AE0120F312E11E0212E11E01115A9F4F2
:1000900002FF05C003FF03C014E0212E0EC002FFC3
:1000A00003C016E0212E09C003FF03C015E0212E76
:1000B00004C0332011F412E0212E12E0111539F49E
:1000C00016B3137018BB12E3312E13E0212E13E088
:1000D0001115B1F402FF05C003FF03C017E0212E84
:1000E0000FC002FF03C015E0212E0AC003FF03C0AA
:1000F00016E0212E05C0332019F414E0212E00C093
:1001000014E0111531F416B31370146218BB18E023
:10011000212E15E0111531F416B31370186218BBB7
:1001200018E0212E16E0111531F416B31370146483
:1001300018BB18E0212E17E0111531F416B3137017
:10014000186418BB18E0212E18E0111521F414E1F1
:10015000312E19E0212E19E0111521F4332011F46C
:1001600010E0212E0895919A4FB633E832BF016016
:100170005394639434E6631611F46624026030B33A
:1001800032FD04C042FF02C00460052C33FD04C0F0
:1001900043FF02C00860052C432F4FBE919818956D
:00000001FF
