:100000000AC00FC00EC00DC00CC00BC00BC009C091
:1000100008C007C006C011241FBECFEDCDBF06D05B
:100020002EC0EECF0FB603950FBE18956FED6DBFC6
:1000300065E063BF62E068BF62E069BF6CEF67BB09
:10004000789404C00023F1F300E00895C29AFADF27
:10005000C298F8DFC39AF6DFC398F4DFC49AF2DFE0
:10006000C498F0DFC59AEEDFC598ECDFC69AEADFE8
:10007000C698E8DFC79AE6DFC798E4DFE7CFF894D1
:02008000FFCFB0
:00000001FF
