:100000006DC286C286C2576F772E20446F6E652000
:100010003A2D29205468616E6B20796F752121215A
:100020002100313238204279746573206F6620498F
:100030006E2D53797374656D2050726F6772616DA8
:100040006D61626C6520454550524F4D003132382C
:1000500020427974657320496E7465726E616C20FC
:1000600052414D00324B204279746573206F6620F7
:10007000496E2D53797374656D2050726F6772618C
:100080006D6D61626C6520466C617368005570200F
:10009000746F203130204D495053205468726F7571
:1000A0006768707574206174203130204D487A0083
:1000B0003332205265676973746572730031313869
:1000C00020506F77657266756C20496E7374727517
:1000D0006374696F6E7300546865204154393053FE
:1000E00032333233206D6963726F636F6E746F6C7D
:1000F0006C65722069732074686520666972737418
:1001000020382D70696E204156522E20466561744C
:10011000757265733A0044696420796F75206B6E5F
:100120006F772074686973203136783820626C7577
:1001300065204C4544206D61747269782069732094
:1001400064726976656E206279206F6E6C792033F7
:1001500020492F4F206C696E65733F0053697420EE
:100160006261636B20616E642072656C61782E2021
:10017000546869732077696C6C206F6E6C79207499
:10018000616B652061206D6F6D656E740057686FDF
:1001900020776F756C6420686176652074686F7570
:1001A0006768742061206D6963726F636F6E74722B
:1001B0006F6C6C6572206F766572203233207965C2
:1001C000617273206F6C6420776F756C6420676553
:1001D000742061206272616E64206E6577207063A6
:1001E0006220696E20323032313F00313939382097
:1001F00063616C6C65642C20746865792077616E2E
:100200007420746865697220382D626974206D6984
:1002100063726F636F6E74726F6C6C657220626173
:10022000636B0000000000000000040404040000F0
:10023000040A0A0A000000000A0A1F0A1F0A0A0428
:100240000F140E051E04181902040813030C1214CF
:100250000815120D0C04080000000002040808082C
:100260000402080402020204080004150E1504002A
:100270000004041F040400000000000C0408000037
:10028000001F00000000000000000C0C0001020430
:100290000810000E11131519110E040C04040404A7
:1002A0000E0E11010204081F1F02040201110E02AA
:1002B000060A121F02021F101E0101110E0608106D
:1002C0001E11110E1F1101020404040E11110E1152
:1002D000110E0E11110F01020C000C0C000C0C0081
:1002E000000C0C000C0408020408100804020000B2
:1002F0001F001F0000080402010204080E11010281
:100300000400040E11010D15150E0E1111111F110F
:10031000111E11111E11111E0E11101010110E1CA4
:1003200012111111121C1F10101E10101F1F10107F
:100330001E1010100E11101711110F1111111F1195
:1003400011110E04040404040E0702020202120C2E
:10035000111214181412111010101010101F111B6C
:100360001515111111111119151311110E1111116A
:1003700011110E1E11111E1010100E111111151257
:100380000D1E11111E1412110F10100E01011E1F4F
:100390000404040404041111111111110E1111119E
:1003A00011110A041111111515150A11110A040A67
:1003B00011111111110A0404041F01020408101F75
:1003C0001C10101010101C110A1F041F04040E0230
:1003D000020202020E040A110000000000000000E8
:1003E00000001F0804020000000000000E010F11B1
:1003F0000F1010161911111E00000E1010110E0111
:10040000010D1311110F00000E111F100E06090827
:100410001C080808000F11110F010E1010161911F9
:10042000111104000C0404040E0200060202120C56
:10043000101012141814120C04040404040E00000A
:100440001A151511110000161911111100000E11C5
:1004500011110E00001E111E101000000D130F01CF
:10046000010000161910101000000E100E011E08D9
:10047000081C080809060000111111130D000011D5
:1004800011110A040000111515150A0000110A04C3
:100490000A11000011110F010E00001F0204081FB5
:1004A0000204040804040204040404040404080408
:1004B00004020404080004021F0204000004081FD0
:1004C000080400EB018D015C011601D700BD00B0EE
:1004D000008D0064004D00220006000011241FBEA4
:1004E000CFEDCDBF10E0A0E6B0E0ECEFF7E003C049
:1004F000C89531960D92A436B107D1F720E0A4E655
:10050000B0E001C01D92A837B207E1F753D074C123
:1005100077CD1F920F920FB60F9211242F933F9316
:100520004F938F939F93EF93FF9384E682BFC09A7C
:100530002FE030E0F32FE22FEB59FF4F808190E066
:100540004091600002C0959587954A95E2F780FF3B
:100550002BC0C19AC29AC2982150310958F787E03E
:1005600090916000981322C0C19AC29AC29881509B
:10057000B8F7C098C09AC09880916000815087FDFC
:1005800017C080936000809177008160809377002E
:10059000FF91EF919F918F914F913F912F910F90EC
:1005A0000FBE0F901F901895C198D4CFC198DDCF82
:1005B00087E0E7CFCDB7DD27C450CDBF88E19DE010
:1005C0000FB6F894A89581BD0FBE91BDB99ABA9A9D
:1005D000B89A83B7836083BF89B7826089BF7894F4
:1005E00094E6292E312C20E1E22E36E0632E712C88
:1005F000AA24A394B12CDD24DA94A89580917700E5
:100600008823E1F38091770080FFF7CF8091770016
:100610008E7F809377008091750090917600892B72
:1006200009F098C03092760020927500E5E6F0E07F
:100630008E2D11928A95E9F7E0916200F0916300A6
:10064000FC83EB8320916400E22FF0E0F0906100E6
:100650000B811C810550110940E03BEFEE0FFF1F9D
:100660009F2F8E2F8D539B4F9A838983912F802F9D
:10067000772D662D98D0892B09F055C017FD53C0F2
:10068000A62F062E000CBB0BE981FA81C895802DA0
:100690003196C895902DF92FE82FEA0FFB1FC895CA
:1006A000802D811101C0F62EFA161B06E1F1DCF156
:1006B00090E067E070E066D050E040E0F92FE82F6E
:1006C000E40FF51FED5BFE4FC895402C6A2D042EFC
:1006D00001C0660F0A94EAF7962E862E8094C32EE8
:1006E00064E070E0512CFFE0FC1598F0EC2DF0E098
:1006F000BB2DAA2D062E02C0AA0FBB1F0A94E2F73B
:10070000A421B521EB59FF4FAB2B71F1A081A92991
:10071000A083C3946150710930F74F5F5F4F47303A
:10072000510561F641E03F5F0F5F1F4F303109F027
:100730009DCFF092610041111DC081EF9FEF90931A
:10074000630080936200D09261002F5F2C3079F0BB
:1007500020936400809175009091760001979093AA
:1007600076008093750049CFA081A821D1CF109247
:100770006400F0CFEB81FC813196F0936300E0934D
:100780006200E8CF0024552704C0080E591F880FC7
:10079000991F009729F076956795B8F37105B9F719
:1007A000802D952F089597FB072E16F4009406D000
:1007B00077FD08D00BD007FC05D03EF490958195CD
:1007C0009F4F0895709561957F4F0895AA1BBB1B9D
:1007D00051E107C0AA1FBB1FA617B70710F0A61B41
:1007E000B70B881F991F5A95A9F780959095682F88
:0C07F000792F8A2F9B2F0895F894FFCFDB
:0407FC0007FFF1FF03
:00000001FF
