:1000000069C282C282C2446F6E65203A2D29205493
:1000100068616E6B20796F75212100313238204282
:1000200079746573206F6620496E2D5379737465FA
:100030006D2050726F6772616D6D61626C652045F5
:100040004550524F4D00313238204279746573204B
:10005000496E7465726E616C2052414D00324B20C6
:100060004279746573206F6620496E2D53797374DD
:10007000656D2050726F6772616D6D61626C652095
:10008000466C61736800557020746F203130204DCC
:10009000495053205468726F756768707574206199
:1000A00074203130204D487A003332205265676920
:1000B00073746572730031313820506F77657266E2
:1000C000756C20496E737472756374696F6E73001A
:1000D00054686520415439305332333233206D69CE
:1000E00063726F636F6E746F6C6C657220697320DE
:1000F00074686520666972737420382D70696E208B
:100100004156522E2046656174757265733A0044FB
:10011000696420796F75206B6E6F772074686973DE
:10012000203136783820626C7565204C4544206D4E
:1001300061747269782069732064726976656E20D3
:100140006279206F6E6C79203320492F4F206C69C3
:100150006E65733F00536974206261636B20616E4A
:10016000642072656C61782E205468697320776909
:100170006C6C206F6E6C792074616B652061206DF2
:100180006F6D656E740057686F20776F756C6420B3
:10019000686176652074686F756768742061206D8A
:1001A0006963726F636F6E74726F6C6C6572206FCF
:1001B000766572203233207965617273206F6C64CA
:1001C00020776F756C6420676574206120627261AE
:1001D0006E64206E65772070636220696E20323015
:1001E00032313F00313939382063616C6C65642CE1
:1001F00020746865792077616E742074686569720F
:1002000020382D626974206D6963726F636F6E743C
:10021000726F6C6C6572206261636B00000000009D
:10022000000000040404040000040A0A0A0000009C
:10023000000A0A1F0A1F0A0A040F140E051E0418DA
:100240001902040813030C12140815120D0C0408EB
:100250000000000002040808080402080402020268
:1002600004080004150E1504000004041F04040013
:10027000000000000C04080000001F000000000047
:100280000000000C0C000102040810000E111315F0
:1002900019110E040C040404040E0E1101020408CA
:1002A0001F1F02040201110E02060A121F02021F82
:1002B000101E0101110E0608101E11110E1F110152
:1002C000020404040E11110E11110E0E11110F0172
:1002D000020C000C0C000C0C00000C0C000C0408B0
:1002E0000204081008040200001F001F0000080498
:1002F00002010204080E1101020400040E11010D96
:1003000015150E0E1111111F11111E11111E1111B3
:100310001E0E11101010110E1C12111111121C1FA3
:1003200010101E10101F1F10101E1010100E111094
:100330001711110F1111111F1111110E04040404D2
:10034000040E0702020202120C11121418141211E8
:100350001010101010101F111B1515111111111173
:1003600019151311110E11111111110E1E11111E5B
:100370001010100E11111115120D1E11111E141254
:10038000110F10100E01011E1F04040404040411B7
:1003900011111111110E11111111110A0411111164
:1003A0001515150A11110A040A11111111110A0467
:1003B00004041F01020408101F1C10101010101C50
:1003C000110A1F041F04040E02020202020E040A94
:1003D00011000000000000000000001F08040200DF
:1003E00000000000000E010F110F1010161911115E
:1003F0001E00000E1010110E01010D1311110F003F
:10040000000E111F100E0609081C080808000F1125
:10041000110F010E1010161911111104000C040413
:10042000040E0200060202120C101012141814120C
:100430000C04040404040E00001A15151111000028
:10044000161911111100000E1111110E00001E11CC
:100450001E101000000D130F0101000016191010DE
:100460001000000E100E011E08081C0808090600E6
:1004700000111111130D00001111110A04000011D7
:100480001515150A0000110A040A11000011110FB8
:10049000010E00001F0204081F02040408040402E5
:1004A000040404040404040804040204040800040A
:1004B000021F0204000004081F080400E401860172
:1004C00055010F01D000B600A90086005D0046006E
:1004D0001B00060011241FBECFEDCDBF10E0A0E62B
:1004E000B0E0E4EFF7E003C0C89531960D92A43672
:1004F000B107D1F720E0A4E6B0E001C01D92A83713
:10050000B207E1F753D074C17BCD1F920F920FB6A3
:100510000F9211242F933F934F938F939F93EF93B9
:10052000FF9384E682BFC09A2FE030E0F32FE22FE2
:10053000EB59FF4F808190E04091600002C095959B
:1005400087954A95E2F780FF2BC0C19AC29AC2985C
:100550002150310958F787E090916000981322C02C
:10056000C19AC29AC2988150B8F7C098C09AC098F0
:1005700080916000815087FD17C08093600080915A
:100580007700816080937700FF91EF919F918F9129
:100590004F913F912F910F900FBE0F901F90189584
:1005A000C198D4CFC198DDCF87E0E7CFCDB7DD27A5
:1005B000C450CDBF88E19DE00FB6F894A89581BDE9
:1005C0000FBE91BDB99ABA9AB89A83B7836083BFB8
:1005D00089B7826089BF789494E6292E312C20E176
:1005E000E22E36E0632E712CAA24A394B12CDD24D4
:1005F000DA94A895809177008823E1F380917700C1
:1006000080FFF7CF809177008E7F80937700809175
:10061000750090917600892B09F098C03092760091
:1006200020927500E5E6F0E08E2D11928A95E9F7AB
:10063000E0916200F0916300FC83EB832091640001
:10064000E22FF0E0F09061000B811C810550110950
:1006500040E03BEFEE0FFF1F9F2F8E2F84549B4FE8
:100660009A838983912F802F772D662D98D0892B9F
:1006700009F055C017FD53C0A62F062E000CBB0B6A
:10068000E981FA81C895802D3196C895902DF92F72
:10069000E82FEA0FFB1FC895802D811101C0F62EAF
:1006A000FA161B06E1F1DCF190E067E070E066D03D
:1006B00050E040E0F92FE82FE40FF51FE45CFE4F17
:1006C000C895402C6A2D042E01C0660F0A94EAF7E3
:1006D000962E862E8094C32E64E070E0512CFFE0AD
:1006E000FC1598F0EC2DF0E0BB2DAA2D062E02C0D3
:1006F000AA0FBB1F0A94E2F7A421B521EB59FF4FC3
:10070000AB2B71F1A081A929A083C3946150710919
:1007100030F74F5F5F4F4730510561F641E03F5F73
:100720000F5F1F4F303109F09DCFF09261004111F2
:100730001DC081EF9FEF9093630080936200D09281
:1007400061002F5F2C3079F0209364008091750058
:10075000909176000197909376008093750049CF31
:10076000A081A821D1CF10926400F0CFEB81FC8151
:100770003196F0936300E0936200E8CF00245527A0
:1007800004C0080E591F880F991F009729F076950D
:100790006795B8F37105B9F7802D952F089597FBEC
:1007A000072E16F4009406D077FD08D00BD007FC76
:1007B00005D03EF4909581959F4F08957095619571
:1007C0007F4F0895AA1BBB1B51E107C0AA1FBB1F87
:1007D000A617B70710F0A61BB70B881F991F5A95CD
:1007E000A9F780959095682F792F8A2F9B2F0895D0
:0407F000F894FFCFAB
:0407F40007FFF1FF0B
:00000001FF
