:1000000075C28FC28EC28DC28CC29FC28AC289C283
:1000100088C287C286C285C284C283C282C21402D9
:10002000B60185013F010001E600D900B6008D0050
:1000300076004B003600446F6E65203A2D2920541F
:1000400068616E6B20796F75212100313238204252
:1000500079746573206F6620496E2D5379737465CA
:100060006D2050726F6772616D6D61626C652045C5
:100070004550524F4D00313238204279746573201B
:10008000496E7465726E616C2052414D00324B2096
:100090004279746573206F6620496E2D53797374AD
:1000A000656D2050726F6772616D6D61626C652065
:1000B000466C61736800557020746F203130204D9C
:1000C000495053205468726F756768707574206169
:1000D00074203130204D487A0033322052656769F0
:1000E00073746572730031313820506F77657266B2
:1000F000756C20496E737472756374696F6E7300EA
:1001000054686520415439305332333233206D699D
:1001100063726F636F6E746F6C6C657220697320AD
:1001200074686520666972737420382D70696E205A
:100130004156522E2046656174757265733A0044CB
:10014000696420796F75206B6E6F772074686973AE
:10015000203136783820626C7565204C4544206D1E
:1001600061747269782069732064726976656E20A3
:100170006279206F6E6C79203320492F4F206C6993
:100180006E65733F00536974206261636B20616E1A
:10019000642072656C61782E2054686973207769D9
:1001A0006C6C206F6E6C792074616B652061206DC2
:1001B0006F6D656E740057686F20776F756C642083
:1001C000686176652074686F756768742061206D5A
:1001D0006963726F636F6E74726F6C6C6572206F9F
:1001E000766572203233207965617273206F6C649A
:1001F00020776F756C64206765742061206272617E
:100200006E64206E65772070636220696E203230E4
:1002100032313F00313939382063616C6C65642CB0
:1002200020746865792077616E74207468656972DE
:1002300020382D626974206D6963726F636F6E740C
:10024000726F6C6C6572206261636B00000000006D
:10025000000000040404040000040A0A0A0000006C
:10026000000A0A1F0A1F0A0A040F140E051E0418AA
:100270001902040813030C12140815120D0C0408BB
:100280000000000002040808080402080402020238
:1002900004080004150E1504000004041F040400E3
:1002A000000000000C04080000001F000000000017
:1002B0000000000C0C000102040810000E111315C0
:1002C00019110E040C040404040E0E11010204089A
:1002D0001F1F02040201110E02060A121F02021F52
:1002E000101E0101110E0608101E11110E1F110122
:1002F000020404040E11110E11110E0E11110F0142
:10030000020C000C0C000C0C00000C0C000C04087F
:100310000204081008040200001F001F0000080467
:1003200002010204080E1101020400040E11010D65
:1003300015150E0E1111111F11111E11111E111183
:100340001E0E11101010110E1C12111111121C1F73
:1003500010101E10101F1F10101E1010100E111064
:100360001711110F1111111F1111110E04040404A2
:10037000040E0702020202120C11121418141211B8
:100380001010101010101F111B1515111111111143
:1003900019151311110E11111111110E1E11111E2B
:1003A0001010100E11111115120D1E11111E141224
:1003B000110F10100E01011E1F0404040404041187
:1003C00011111111110E11111111110A0411111134
:1003D0001515150A11110A040A11111111110A0437
:1003E00004041F01020408101F1C10101010101C20
:1003F000110A1F041F04040E02020202020E040A64
:1004000011000000000000000000001F08040200AE
:1004100000000000000E010F110F1010161911112D
:100420001E00000E1010110E01010D1311110F000E
:10043000000E111F100E0609081C080808000F11F5
:10044000110F010E1010161911111104000C0404E3
:10045000040E0200060202120C10101214181412DC
:100460000C04040404040E00001A151511110000F8
:10047000161911111100000E1111110E00001E119C
:100480001E101000000D130F0101000016191010AE
:100490001000000E100E011E08081C0808090600B6
:1004A00000111111130D00001111110A04000011A7
:1004B0001515150A0000110A040A11000011110F88
:1004C000010E00001F0204081F02040408040402B5
:1004D00004040404040404080404020404080004DA
:1004E000021F0204000004081F08040011241FBE9C
:1004F000CFE5D1E0DEBFCDBF10E0A0E6B0E0ECE696
:10050000F8E002C005900D92A436B107D9F720E0BB
:10051000A4E6B0E001C01D92A837B207E1F769D1A7
:10052000A3C16ECD88E19DE00FB6F894A89581BD7A
:100530000FBE91BDB99ABA9AB89A83B7836083BF48
:1005400089B7826089BF789408951F920F920FB681
:100550000F9211242F933F934F935F936F937F9349
:100560008F939F93AF93BF93EF93FF9383E882BFE3
:100570000FD180916400816080936400FF91EF91BE
:10058000BF91AF919F918F917F916F915F914F91AB
:100590003F912F910F900FBE0F901F901895A89527
:1005A000809164008823E1F38091640080FF06C09D
:1005B000809164008E7F80936400D3C00895803161
:1005C000A8F4683098F4E82F880FFF0B81E090E0E2
:1005D00001C0880F6A95EAF7E859FF4F90814423DC
:1005E00011F0892B02C080958923808308957F9222
:1005F0008F929F92AF92BF92CF92DF92EF92FF9233
:100600000F931F93CF93DF93782ECAEFC60F842FDB
:1006100090E067E070E0F0D05C0110E000E088243A
:100620008394912CF801EA0DFB1DE459FE4FC49010
:10063000D72D84E0E82EF12CD12CC4010E2C02C061
:10064000880F991F0A94E2F78C219D2141E0892BA4
:1006500009F440E06C2F8D2FB2DF81E0E81AF10839
:10066000DF5F8FEFE816F80641F70F5F1F4FCF5F90
:1006700007301105B9F6DF91CF911F910F91FF90CF
:10068000EF90DF90CF90BF90AF909F908F907F9032
:100690000895EF92FF920F931F93CF93DF93E8E6B5
:1006A000F0E080E1DF011D928A95E9F7CBEFDFEF03
:1006B00020E006E010E03C2FE0906100F090620046
:1006C000FE01EE0DFF1DCF01B801A7D0892B09F562
:1006D000F7FD1FC0E0916700F0E0EE0FFF1FE25E44
:1006E000FF4F862F062E000C990B0590F491E02DFC
:1006F000E80FF91F4491411102C0609360005091CE
:1007000060005817190629F024F066E0832F6FDF88
:1007100021E02196C031D10571F6211114C081EF7D
:100720009FEF90936200809361008FEF8093600051
:10073000809167008F5F8C3019F0809367000AC04A
:100740001092670007C0BFEFEB1AFB0AF09262003D
:10075000E0926100DF91CF911F910F91FF90EF9098
:1007600008958091650090916600892B39F484E6A4
:1007700090E090936600809365008BDF8091650028
:1007800090916600019790936600809365000895AC
:10079000C09A2FE030E0F901E859FF4F808190E0E6
:1007A0004091630002C0959587954A95E2F780FFD6
:1007B00002C0C19A01C0C198C29AC29821503109A1
:1007C00050F787E090916300981302C0C19A01C06E
:1007D000C198C29AC2988150A8F7C098C09AC09890
:1007E00080916300815087FF01C087E080936300A0
:1007F000089598DED4DEFECF0024552704C0080EED
:10080000591F880F991F009729F076956795B8F3BF
:100810007105B9F7802D952F089597FB072E16F4D3
:10082000009406D077FD08D00BD007FC05D03EF42D
:10083000909581959F4F0895709561957F4F08958C
:10084000AA1BBB1B51E107C0AA1FBB1FA617B707F6
:1008500010F0A61BB70B881F991F5A95A9F7809512
:0C0860009095BC01CD010895F894FFCFE5
:04086C00FFF1FF0792
:00000001FF
