:1000000012C017C016C015C014C013C013C011C051
:1000100010C00FC00EC00DC00CC00BC00AC009C07C
:1000200008C007C006C011241FBECFEDCDBF06D04B
:1000300032C0E6CF0FB603950FBE18956FED6DBFBA
:1000400060E866BD662766BD65E063BF62E068BFC5
:1000500062E069BF6CEF67BB789404C00023F1F3E2
:1000600000E00895C29AFADFC298F8DFC39AF6DF7B
:10007000C398F4DFC49AF2DFC498F0DFC59AEEDFCC
:10008000C598ECDFC69AEADFC698E8DFC79AE6DFD4
:0A009000C798E4DFE7CFF894FFCF34
:00000001FF
